S0110000494F4578616D706C652E73726563AF
S113000045C0000053C0000051C000004FC00000B4
S11300104DC000004BC0000049C0000047C00000B4
S113002045C0000043C0000041C000003FC00000C4
S11300303DC000003BC0000039C0000038C00000D3
S113004035C0000033C0000031C000002FC00000E4
S11300502DC000002BC0000029C0000027C00000F4
S113006025C0000023C0000021C000001FC0000004
S11300701DC000001BC0000019C0000017C0000014
S113008015C0000013C0000011C0000011241FBEE1
S1130090CFEFD0E1DEBFCDBF21E0A0E0B1E001C0F1
S11300A01D92A330B207E1F745D057C0A9CF1F92E4
S11300B00F920FB60F9211248F9380910101882320
S11300C029F0809101018150809301018091020106
S11300D0882329F0809102018150809302018F913D
S11300E00F900FBE0F901F9018959091000181E022
S11300F089278093000188BB08959091000182E0D4
S113010089278093000188BB089581E08ABBD89A2F
S113011083E087BB89EF81BF8CE083BF82E087BF28
S1130120109200018AEF809301018DE78093020110
S113013078940895EADFD898CAEFDDE78091010149
S1130140811103C0C0930101D0DF809102018111AC
S1110150F5CFD0930201D1DFF1CFF894FFCFA9
S9030000FC
