:1000000045C0000060C000005EC000005CC0000091
:100010005AC0000058C0000056C0000054C0000084
:1000200052C0000050C000004EC000004CC0000094
:10003000DDC2000048C0000046C0000044C000000F
:1000400042C0000040C000003EC000003CC00000B4
:100050003AC0000038C0000036C0000034C00000C4
:1000600032C0000030C000002EC000002CC00000D4
:100070002AC0000028C0000026C0000024C00000E4
:1000800022C0000020C000001EC0000011241FBEBE
:10009000CFEFD0E1DEBFCDBF11E0A0E0B1E0E0ECFA
:1000A000FCE000E00BBF02C007900D92A031B10749
:1000B000D9F727E0A0E1B1E001C01D92AF33B2074C
:1000C000E1F722D0FBC59CCFCF93DF9300D0CDB713
:1000D000DEB77AD0F8D39A8389837ED064EF71E05B
:1000E000CE01019650D5F9CFCF93DF9300D0CDB795
:1000F000DEB76AD0E8D39A83898369D068EE73E06B
:10010000CE01019640D5F9CFAF92BF92CF92DF9248
:10011000EF92FF920F93A12CB12CC12CD12CE12C8A
:10012000F12C01E020E030E045E550E062E071E0D4
:1001300084E790E09AD220E030E045E550E066E0C8
:1001400071E084E690E091D28FD380E090E00F914F
:10015000FF90EF90DF90CF90BF90AF900895CF9336
:10016000DF93EC01AAD38091100190911101892BAA
:1001700031F483E191E0909311018093100140915B
:10018000EE065091EF069E01240F351F2B3D85E0B2
:10019000380770F44217530770F4C0911001D091E2
:1001A0001101C40FD51F3093EF062093EE0605C052
:1001B000C0E0D0E002C0C0E0D0E069D48C2F9D2F19
:1001C000DF91CF910895089583E087BB089598B398
:1001D00081E0892788BB089598B382E0892788BB8E
:1001E0000895FC010396928381832FEF3FEF3483C0
:1001F0002383968385839087878310820895FC01EB
:10020000118610860895CF93DF939C01FB01DC01DA
:100210001196CD91DC911297D383C2838C819D81FD
:10022000958384838C819D81DC0113967C936E93EE
:1002300012977D836C8331872087F90180818F5FDE
:100240008083DF91CF910895CF93DF93EB014881B5
:1002500059814F3F2FEF520721F4FC01A781B08550
:100260000DC0DC01139601C0DF011296ED91FC91E7
:1002700013972081318142175307B0F71296ED9101
:10028000FC911397FB83EA83D583C483BD83AC833E
:100290001396DC93CE93129799878887FC0120816F
:1002A0002F5F2083DF91CF910895CF93DF93FC01DF
:1002B000A085B185C281D381848195819D838C8302
:1002C000C481D581828193819B838A831196CD914C
:1002D000DC911297CE17DF0731F48C819D81129645
:1002E0009C938E931197118610868C9181508C93DC
:1002F000DF91CF91089531E1FC013083319722E203
:100300002083FC013297A3E3A083FC013397608331
:10031000FC0134977083FC0135971082FC013697FD
:1003200060E86083FC0137971082FC01389762E037
:100330006083FC01399763E06083FC013A9764E0D5
:100340006083FC013B9765E06083FC013C9766E0BD
:100350006083FC013D9767E06083FC013E9768E0A5
:100360006083FC013F9769E06083FC01709760E166
:100370006083FC0171973083FC01729732E1308316
:10038000FC01739733E13083FC01749734E13083CF
:10039000FC01759735E13083FC01769736E13083B7
:1003A000FC01779737E13083FC01789738E130839F
:1003B000FC01799739E13083FC017A9730E2308390
:1003C000FC017B9731E23083FC017C972083FC01A8
:1003D0007D9723E22083FC017E974083FC017F9779
:1003E0005083FC01B09726E22083FC01B19727E2FD
:1003F0002083FC01B29728E22083FC01B39729E215
:100400002083FC01B49720E32083FC01B59721E30E
:1004100020839C0126523109822F932F08951BBC03
:1004200089EF8ABD8BE08EBD87B7806187BFA091C1
:10043000FD06B091FE06CD91CDBFDD91DEBFFF91EF
:10044000EF91DF91CF91BF91AF919F918F917F916C
:100450006F915F914F913F912F911F910F91FF905D
:10046000EF90DF90CF90BF90AF909F908F907F9054
:100470006F905F904F903F902F901F900F900FBE06
:100480000F90089581E008950F920FB6F8940F929F
:100490001F9211242F923F924F925F926F927F9200
:1004A0008F929F92AF92BF92CF92DF92EF92FF9284
:1004B0000F931F932F933F934F935F936F937F936C
:1004C0008F939F93AF93BF93CF93DF93EF93FF935C
:1004D000A091FD06B091FE060DB60D920EB60D92DE
:1004E0008FD3A091FD06B091FE06CD91CDBFDD91D9
:1004F000DEBFFF91EF91DF91CF91BF91AF919F91BF
:100500008F917F916F915F914F913F912F911F91AB
:100510000F91FF90EF90DF90CF90BF90AF909F90A2
:100520008F907F906F905F904F903F902F901F9093
:100530000F900FBE0F9008950F920FB6F8940F9280
:100540001F9211242F923F924F925F926F927F924F
:100550008F929F92AF92BF92CF92DF92EF92FF92D3
:100560000F931F932F933F934F935F936F937F93BB
:100570008F939F93AF93BF93CF93DF93EF93FF93AB
:10058000A091FD06B091FE060DB60D920EB60D922D
:10059000A6D1811135D3A091FD06B091FE06CD9173
:1005A000CDBFDD91DEBFFF91EF91DF91CF91BF9184
:1005B000AF919F918F917F916F915F914F913F91FB
:1005C0002F911F910F91FF90EF90DF90CF90BF90F0
:1005D000AF909F908F907F906F905F904F903F90E3
:1005E0002F901F900F900FBE0F900895A5DF1895C4
:1005F000CF93DF93EC01E091FD06F091FE0693832B
:1006000082838091F6069091F706C817D90760F4A7
:100610006091FD067091FE068091F9069091FA06B0
:100620006E5F7F4F11DE16C06091FD067091FE0671
:100630008091FB069091FC066E5F7F4F05DE8091F6
:10064000000190910101C817D90720F4D09301014E
:10065000C0930001DF91CF910895C0E0D7E0888179
:10066000823010F011DFFBCFFFCF4F925F926F927D
:100670007F928F929F92AF92BF92CF92DF92EF9232
:10068000FF920F931F93CF93DF934C015B012A01DD
:10069000390181E290E063DDEC01009709F4D2C0FA
:1006A000C114D10409F0B8C0C20159DD988F8F8BF5
:1006B000892B09F0B3C0CE0186DDC4C0CF013191D2
:1006C000DA013D93AD01DC018C91882311F02150BA
:1006D000A9F718A2102F043008F013E01E8B5E015A
:1006E000B2E0AB0EB11CC5018ADDCE010C9687DDF0
:1006F000D987C88784E090E0811B91099D878C870A
:10070000DB8BCA8BA301B401C601F5DD9983888315
:10071000E114F10419F0F701D183C0830FB6F89406
:100720000F928091F8068F5F8093F8068091FD0606
:100730009091FE06892B99F5D093FE06C093FD0695
:100740008091F8068130D1F5E12CF12CC701880F9A
:10075000991F880F991F880F991F8E0D9F1D80501C
:10076000994F3FDDFFEFEF1AFF0A84E0E816F1042E
:1007700069F784E297E035DD8DE297E032DD86E3CC
:1007800097E02FDD84E297E09093FC068093FB06D0
:100790008DE297E09093FA068093F9060FC080915E
:1007A000F40681110BC0E091FD06F091FE068689EA
:1007B000081720F0D093FE06C093FD068091FF0637
:1007C0008F5F8093FF068E899091F506981710F43D
:1007D0008093F50690E09C01220F331F220F331FF8
:1007E000220F331F820F931FB5018050994F0BDDED
:1007F0000F900FBE8091F406882351F0E091FD0622
:10080000F091FE068689801728F43EDE81E01BC049
:1008100081E019C081E017C0D88ECF8AA1E04A1AC2
:100820005108CF88D88CC40CD51CF5018081898FE4
:100830008081882309F44DCFAE01465E5F4F31962B
:1008400027E03CCF8FEFDF91CF911F910F91FF9069
:10085000EF90DF90CF90BF90AF909F908F907F9060
:100860006F905F904F900895AF92BF92CF92DF92BA
:10087000EF92FF920F93A12CB12CC12CD12CE12C23
:10088000F12C00E020E030E045E550E06BE071E065
:100890008DE293E0EADE813041F4F8948093F4062F
:1008A0001092F7061092F606BADD0F91FF90EF90C6
:1008B000DF90CF90BF90AF9008958091F0068F5F4A
:1008C0008093F00608950FB6F8940F922091F606E3
:1008D0003091F7060F900FBE822F932F0895CF927D
:1008E000DF92EF92FF920F931F93CF93DF9380914C
:1008F000F0068111B3C08091F6069091F70601963B
:100900009093F7068093F606E090F606F090F706CF
:10091000E114F10499F58091FB069091FC06209179
:10092000F9063091FA063093FC062093FB0690936B
:10093000FA068093F9068091F1068F5F8093F106A5
:10094000E091FB06F091FC068081811107C08FEFDA
:100950009FEF909301018093000110C0E091FB068E
:10096000F091FC060580F681E02D0680F781E02DF0
:100970008281938190930101809300018091000115
:1009800090910101E816F90620F4D12C51C0DC2C1D
:1009900003C0D12CCC24C394E091FB06F091FC065B
:1009A0008081811107C08FEF9FEF909301018093A9
:1009B00000013EC0E091FB06F091FC060580F68147
:1009C000E02DC681D7812A813B81E216F30628F407
:1009D00030930101209300012BC08E010E5F1F4F49
:1009E000C80163DC8C899D89892B19F0CE010C9696
:1009F0005CDC2E898091F506821710F42093F506B1
:100A000030E0C901880F991F880F991F880F991F1F
:100A1000820F931FB8018050994FF5DBE091FD06DE
:100A2000F091FE069E898689981708F0B0CFB4CF62
:100A3000E091FD06F091FE06868990E0FC01EE0F44
:100A4000FF1FEE0FFF1FEE0FFF1F8E0F9F1FFC01FA
:100A5000E050F94F8081823040F409C08091F30664
:100A60008F5F8093F306D12C02C0DD24D394809154
:100A7000F206882311F0DD24D3948D2DDF91CF91E0
:100A80001F910F91FF90EF90DF90CF900895DF922C
:100A9000EF92FF920F931F93CF93DF930FB6F894CB
:100AA0000F928091F00681508093F0068091F006BD
:100AB00081115CC08091F80681112FC05AC0E0916D
:100AC0003B07F0913C07C681D781CE010C96EDDB48
:100AD0008E010E5F1F4FC801E8DB8E899091F506ED
:100AE000981710F48093F50690E09C01220F331FB5
:100AF000220F331F220F331F820F931FB801805024
:100B0000994F81DBE091FD06F091FE069E89868972
:100B1000981758F0D092F20608C00F2EF6E3EF2E89
:100B2000F7E0FF2EF02DDD24D394F70180818111B1
:100B3000C6CF8091F306882391F08091F306882335
:100B400071F0C1E0CCDE8111C093F2068091F30612
:100B500081508093F3068091F3068111F3CF809149
:100B6000F206813029F490DC81E003C080E001C00E
:100B700080E00F900FBEDF91CF911F910F91FF90FA
:100B8000EF90DF9008950F931F93CF93DF938C0125
:100B9000EB0193DE8091F6069091F706F801208133
:100BA0003181C20FD31F8217930748F4C217D307AE
:100BB000F0F4D183C0838C179D0780F407C0C2175F
:100BC000D30788F08C179D0770F011C08091FD0647
:100BD0009091FE06029669DBCE010ADD58DF811195
:100BE0000AC052DC08C0F801D183C083EFCFF801FE
:100BF000D183C083F3CFDF91CF911F910F910895DF
:100C00008091F006882321F081E08093F206089518
:100C10001092F2068091F50690E0FC01EE0FFF1FA6
:100C2000EE0FFF1FEE0FFF1F8E0F9F1FFC01E05006
:100C3000F94F8081811117C08091F5068150809312
:100C4000F5068091F50690E0FC01EE0FFF1FEE0F18
:100C5000FF1FEE0FFF1F8E0F9F1FFC01E050F94F8B
:100C60008081882349F3E091F506F0E0CF01880FF9
:100C7000991F880F991F880F991FE80FF91FE050DF
:100C8000F94FA181B28112960D90BC91A02DB28333
:100C9000A183CF010396A817B90731F412968D915D
:100CA0009C911397928381830180F281E02D86814C
:100CB00097819093FE068093FD060895F894FFCFE8
:100CC000FFFF4C4544004C4544320049444C45002C
:00000001FF
