:0800000014C0FECFFDCFFCCFC0
:10000800FBCFFACFF9CFF8CFF7CFF6CFF5CFF4CFB4
:10001800F3CFF2CFF1CFF0CFEFCFEECFEDCFECCFE4
:10002800EBCFF894EE27ECBBF1E0FBBFEBBFE5BFED
:10003800F8E1F1BDE1BD8DE0A2E0BB27ED938A9523
:10004800E9F780E092E0A0E6ED930197E9F7EFE5A4
:10005800EDBFE2E0EEBFC0EED0E000C0E0E0EBBBF9
:10006800EABBE8BBE7BBE5BBE4BBE2BBEFEFE1BB48
:10007800E0E0E3BFE2BFECBFEFBDEEBDEDBDECBD20
:10008800E7BDE6BDEBBDEABDE9BDE8BDE2BDE5BD46
:10009800E4BDE3BDE5BFE4BFE9BFE0E8E8B9E0E0FF
:1000A800E0BFC89B03C0EFEFE2BBFBCFFACFFFCFA7
:00000001FF
