:0200000020C01E
:10000200FECFFDCFFCCFFBCFFACFF9CFF8CFF7CFA2
:10001200F6CFF5CFF4CFF3CFF2CFF1CFF0CFEFCFD2
:10002200EECFEDCFECCFEBCF01002D4E414E0000D5
:1000320080C00100F0002A000200F400320000003B
:10004200F894EE27ECBBF1E0FBBFEBBFE5BFF8E1B4
:10005200F1BDE1BD8DE0A2E0BB27ED938A95E9F702
:1000620080E092E0A0E6ED930197E9F7E4E3F0E0A7
:1000720085919591009761F0A591B59105901590A4
:10008200BF01F00105900D920197E1F7FB01F0CF5E
:10009200EFE5EDBFE2E0EEBFC0EED0E02BC0E881BD
:1000A200E7B985E28A95F1F7369A349BFECF349A06
:1000B200E4B1F5B130C131D1F2DF2F01D201EFEF5E
:1000C200F3E079D1A5E0B0E05ED150D1DBD1A3D18C
:1000D2003F010895B2D021D120D19FD07A926A9265
:1000E2001FD136D01DD1CDD0E8EEF3E0FA93EA93DA
:1000F20025D10895E0E0EBBBEABBE8BBE7BBE5BB7B
:10010200E4BBE2BBE1BBE3BFE2BFECBFEFBDEEBDD0
:10011200EDBDECBDE7BDE6BDEBBDEABDE9BDE8BDA9
:10012200E2BDE5BDE4BDE3BDE5BFE4BFE9BFE0E894
:10013200E8B9E0E0E0BFE7B9E5E8E6B9E0B7EF7EAD
:10014200E0BFE0E1EA93BBD0B6DFC4DFFDCFFFCF73
:10015200A991B991E991F99130962AF4E095F09537
:1001620031966DE26D93E89480E197E20DD088EECE
:1001720093E00AD084E6992707D08AE005D06E2F53
:1001820010D066276C9308956627E817F90720F0C8
:100192006395E81BF90BC9F7662311F416F008956D
:1001A2006894605D6D930895FFE0FA95F1F7089504
:1001B200A4B3AF70A4BBA99AA898F6DFAA9AF4DFF9
:1001C200A3B3AA98F1DFAA9AEFDFAA98A7FDF5CF09
:1001D2000895A07FAB2BA5BBAA9AE6DFAA98E4DF1D
:1001E2000895A998A4B3A76FA4BBB5B3BF70A881A3
:1001F200F0DFA881A295EDDFA99A8DC0AA9AD4DF7B
:10020200E3B3AA98D1DFE07F0895CEDFF7DFAE2F08
:10021200F5DFA998E295EA2B0895CADF86D0EC5063
:10022200FF4FE081F0E0DF01E981F0E0EA0FFB1F20
:100232007FD09980888022960895BADFE2E078D054
:10024200B7DFECE075D0B4DFE1E072D0E0E08E2EF3
:100252009E2E0895EF93FF93A8816894AA3019F017
:10026200E8949B1428F0839458D08A92D6DF36F013
:1002720093949EDFA89AA881AA93B3DFFF91EF918E
:100282004AC01A93A981BA81ED91A983BA831E2F1C
:10029200E03019F01A93DEDFF5CF18812396089526
:1002A200AA27BB271197F1F70895A998A4B3A76FBE
:1002B200A4BBB5B3BF70A8818CDFA99A2CC0AA9841
:1002C200A898B88032D0E058FF4FE093F6002DD0C6
:1002D200E054FF4FE093F7002DD02CD02BD0E0DF7D
:1002E200E0E2EA93E2DFDCDFE8E222D0D9DFE4E019
:1002F2001FD0D6DFE5E81CD0D3DFA4B3AF70A4BB18
:10030200A99A83DFE53011F0E0E005C051DFE6E0B5
:100312000FD093DFE1E021960895E0E0EA9308959B
:10032200E0EEF0E0FA93EA930895E881F0E00895B0
:10033200EA9357CFB5DFE0E3EA93B7CFE991F991BA
:10034200309639F08DEC9AE00197F1F7A895319744
:10035200C9F70895F195E195F0400895F0956095FB
:100362007095E195FF4F6F4F7F4F08956F2F660F86
:10037200660B762F0895FA9FF02DEB9FF00DEA9F02
:10038200E02DF10D08951CD0F6DF0EF4E3DF0895A1
:100392000024112490E1AA0FBB1F001C111C0E1A8D
:1003A2001F0A18F40E0E1F1E01C0A1609A9599F73C
:1003B200FD01D001089504D0EBDF0EF4CBDF0895E8
:1003C200E894F7FF02C0C6DF6894B7FF06C0A095A5
:1003D200B095119600F8039400FA089550E8572753
:1003E20011F45F936BC05F3F31F0660F000C5795BD
:1003F2006795752F08955F9300200AF06BC064C063
:1004020050E8072E0522660F771F7527550F67954F
:100412000895689401C0E8945F93F2DF703818F091
:100422007F3F08F44BC056E1571BAAF45195583050
:100432000EF4593030F0EFEFFFEF6FEF7FE777F90F
:100442001AC077275523B9F0EE0FFF1F661F771FDB
:100452005A95D1F710C07727583028F0EF2FF62F92
:10046200672F5850F9CF552331F076956795F79558
:10047200E7955A95D1F700200AF470DF5F9108954D
:10048200689401C0E894309760407040B1F0002455
:1004920026F0772312F4009461DF172E7EE11120FB
:1004A20032F07A95EE0FFF1F661F111CF9CFEF2F66
:1004B200F62F612D5F9392DF5F910895EE27FF275C
:1004C200662777275F910895EFEFFFEF6FE77FEFE2
:1004D2005F910895EFEFFFEF6FE77FE75F91089578
:00000001FF
