:100000002BC0FECFFDCFFCCFFBCFFACFF9CFF8CF7F
:10001000F7CF51C0F5CFF4CFF3CFF2CFF1CFF0CF80
:10002000EFCFEECFEDCFECCFEBCF1027E80364009E
:100030000A000100001000011000010080C0010052
:100040002D4E414E00494E4600000200EA003C00A1
:100050000100EE003E000000F894EE27ECBBF1E05A
:10006000FBBFEBBFE5BFF8E1F1BDE1BD8DE0A2E074
:10007000BB27ED938A95E9F780E092E0A0E6ED9347
:100080000197E9F7EAE4F0E085919591009761F036
:10009000A591B59105901590BF01F00105900D92C5
:1000A0000197E1F7FB01F0CFEFE5EDBFE2E0EEBF36
:1000B000C0EED0E04BC0EA93FA93EFB7EA93F301B6
:1000C00031963F01E991EFBFF991E99118956624C6
:1000D0007724D09AD89A82E18A95F1F7D898D09867
:1000E000D89AC89BFECFC89B05C0F30131963F014B
:1000F0003197F9CFF3017FD2B5D1ADECBCEC8CE5F3
:1001000091E4DED178D14F01F40175D2ABD1AEE0EC
:10011000B3E18DE09DE3D4D1DF01CB01E0E0F0E07D
:1001200060E070E41BD267D12F015A924A921DD130
:10013000F0D080D0E0E0EA93EA936FD016D19FD060
:10014000EAE0F0E0FA93EA931BD10895E0E0EBBB1C
:10015000EABBE8BBE7BBE5BBE4BBE2BBEFE3E1BB6B
:10016000E0E0E3BFE2BFECBFE1E0EFBDEDE0EEBDFC
:10017000E0E0EDBDECBDE7BDE6BDEBBDEABDE9BD30
:10018000E8BDE2BDE5BDE4BDE3BDE5BFE4BFE1E040
:10019000E9BFE0E8E8B9E0E0E0BFE0E1EA938DD054
:1001A000789495DFFECFFFCFFFE0FA95F1F7089541
:1001B000A7B3AF70A7BBC19AC098F6DFC29AF4DFAD
:1001C000A6B3C298F1DFC29AEFDFC298A7FDF5CFC0
:1001D0000895A07FAB2BA8BBC29AE6DFC298E4DFEC
:1001E0000895C198A7B3A76FA7BBB8B3BF70A88184
:1001F000F0DFA881A295EDDFC19A89C0C29AD4DF51
:10020000E6B3C298D1DFE07F0895CEDFF7DFAE2FEF
:10021000F5DFC198E295EA2B0895CADFE881F0E0A6
:10022000E651FF4FE081A981EA0FA4D0B980A880F0
:1002300022960895BDDFE2E09DD0BADFECE09AD0CF
:10024000B7DFE1E097D0E0E0AE2EBE2E0895EF9349
:10025000FF93A8816894AA3019F0E894BD1430F097
:10026000A394E0E0EA93AA92D8DF36F0B394A0DF3B
:10027000C09AA881AA93B5DFFF91EF9148C01A9365
:10028000A981BA81ED91A983BA831E2FE03019F0BC
:100290001A93DDDFF5CF188123960895AA27BB278F
:1002A0001197F1F70895C198A7B3A76FA7BBB8B38B
:1002B000BF70A8818EDFC19A2AC0C298C098D8802A
:1002C000E881E058E093EC00E881E054E093ED0031
:1002D00053D052D051D0E2DFE0E2EA93E4DFDEDF38
:1002E000E8E248D0DBDFE4E045D0D8DFE5E842D003
:1002F000D5DFA7B3AF70A7BBC19A87DFE53011F098
:10030000E0E005C055DFE6E035D094DFE1E021967E
:100310000895A991B991E991F99130962AF4E0955F
:10032000F09531966DE26D93E89480E197E20DD0FF
:1003300088EE93E00AD084E6992707D08AE005D0BA
:100340006E2F10D066276C9308956627E817F9077B
:1003500020F06395E81BF90BC9F7662311F416F03A
:1003600008956894605D6D930895E0EEF0E0FA936F
:10037000EA930895EA9335CF91DFE0E3EA9393CFD0
:10038000E991F991309639F08DEC9AE00197F1F707
:10039000A8953197C9F70895552342F4503811F4C0
:1003A000E0FF04C03196691F791F6BF050E85727B2
:1003B00011F45F9373C05F3F31F0660F000C5795E7
:1003C0006795752F08955F9300200AF073C06CC085
:1003D00050E8192E1522880F991F9527550F8795DC
:1003E00050E8072E0522660F771F7527550F679572
:1003F0000895689401C0E8945F93F2DF703818F0B4
:100400007F3F08F44BC056E1571BAAF45195583072
:100410000EF4593030F0EFEFFFEF6FEF7FE777F931
:100420001AC077275523B9F0EE0FFF1F661F771FFD
:100430005A95D1F710C07727583028F0EF2FF62FB4
:10044000672F5850F9CF552331F076956795F7957A
:10045000E7955A95D1F700200AF4C5D05F91089529
:10046000689401C0E894309760407040B1F0002477
:1004700026F0772312F40094B6D0172E7EE11120D7
:1004800032F07A95EE0FFF1F661F111CF9CFEF2F88
:10049000F62F612D5F938ADF5F910895EE27FF2786
:1004A000662777275F910895EFEFFFEF6FE77FEF04
:1004B0005F910895EFEFFFEF6FE77FE75F9108959A
:1004C0005F9386DF703851F3903841F3012408942C
:1004D000791F23F41CF300203AF3ECCF0F921F9303
:1004E0002F933F934F93112722279927689FA001AD
:1004F0008F9F302D410D591F6B9F300D411D591F8E
:100500008E9F27D0BF9F25D06A9F23D0BE9F1DD02E
:10051000AF9F1BD0AE9F110D291F391F491F591FB7
:10052000E32FF42F652F522F4F913F912F911F9161
:100530000F9066232AF0550FEE1FFF1F661F02C0A3
:1005400073954BF229DF5F910895100D211D391F1E
:1005500002C0200D311D491F591F08955F9338DFD8
:10056000703821F411200AF49FCFA4CF903809F4F9
:1005700095CF01240894970B1BF4D4F30020F3CFFC
:10058000792F1F932F933F934F93112411272227E5
:1005900033274427552790E2AE17BF078607410748
:1005A00030F0AE1BBF0B860B410B089401C0889442
:1005B000551F221F331F111CAA1FBB1F881F441F5A
:1005C0009A9551F7F901612D4F913F912F911F910C
:1005D000662332F0550FEE1FFF1F661F7A9543F218
:1005E000DBDE5F910895F09560957095E195FF4F82
:1005F0006F4F7F4F08956F2F660F660B762F08950C
:00000001FF
